:060000000A128A110C280F
:10000800FE00030EF2000A08F3000A128A112328E0
:100018000A128A110F2883133430FD000130FE00C4
:100028001930FF00203084000A128A1131210A1287
:100038008A11F401F50183010A128A1140290B1C67
:1000480026282728F02815307502031C2C282D286F
:100058002E28F5010B1083120313061834283528AF
:1000680039280130F0007008F5070B1086183D2874
:100078003E2840280130F5020B107508F000F10108
:1000880021087106031D4A2820087006031D4D2803
:100098004E284F28F4010B107508F000F1012308D1
:1000A8007106031D592822087006031D5C285D2867
:1000B8005F28F401F40A0B107508F000F101250817
:1000C8007106031D692824087006031D6C286D2815
:1000D80071280230F0007008F4000B107508F00069
:1000E800F10127087106031D7B2826087006031DE9
:1000F8007E287F2883280330F0007008F4000B1056
:100108007508F000F10129087106031D8D282808DB
:100118007006031D9028912895280430F000700877
:10012800F4000B107508F000F1012B087106031D8F
:100138009F282A087006031DA228A328A72805308F
:10014800F0007008F4000B107508F000F1012D089C
:100158007106031DB1282C087006031DB428B528A4
:10016800B9280630F0007008F4000B107508F0008C
:10017800F1012F087106031DC3282E087006031D00
:10018800C628C728CB280730F0007008F4000B10E9
:100198007508F000F10131087106031DD5283008F3
:1001A8007006031DD828D928DD280830F00070080B
:1001B800F4000B107508F000F10133087106031DF7
:1001C800E72832087006031DEA28EB28EF280930D3
:1001D800F0007008F4000B1073088A00720E830098
:1001E800FE0E7E0E09008316031788018901831607
:1001F80003138701831203138701831603138501F1
:1002080083120313850183160313061486148113BE
:10021800151495148B178B15161496140B100F08BC
:100228008F3960388F000F14080002340034083406
:1002380000340C34003413340034043400340B34E8
:10024800003407340034033400340D3400340934E6
:1002580000347E088A007F0882000A128A112D2144
:100268000A128A118000840A04087D0603190034E2
:10027800FF0A0319FE0A31290A128A11F7200A1205
:100288008A117508831203138500740887004529AD
:060298000A128A110C2875
:08400000FF3FFF3FFF3FFF3FC0
:04400E00D420FF3F7C
:00000001FF
